{
  "_format": "hh-sol-artifact-1",
  "contractName": "MyERC20",
  "sourceName": "contracts/ERC20.sol",
  "abi": [
    {
      "inputs": [
        {
          "internalType": "string",
          "name": "_name",
          "type": "string"
        },
        {
          "internalType": "string",
          "name": "_symbol",
          "type": "string"
        },
        {
          "internalType": "uint256",
          "name": "_decimals",
          "type": "uint256"
        }
      ],
      "stateMutability": "nonpayable",
      "type": "constructor"
    },
    {
      "anonymous": false,
      "inputs": [
        {
          "indexed": true,
          "internalType": "address",
          "name": "_owner",
          "type": "address"
        },
        {
          "indexed": true,
          "internalType": "address",
          "name": "_spender",
          "type": "address"
        },
        {
          "indexed": false,
          "internalType": "uint256",
          "name": "_value",
          "type": "uint256"
        }
      ],
      "name": "Approval",
      "type": "event"
    },
    {
      "anonymous": false,
      "inputs": [
        {
          "indexed": true,
          "internalType": "address",
          "name": "_from",
          "type": "address"
        },
        {
          "indexed": true,
          "internalType": "address",
          "name": "_to",
          "type": "address"
        },
        {
          "indexed": false,
          "internalType": "uint256",
          "name": "_value",
          "type": "uint256"
        }
      ],
      "name": "Transfer",
      "type": "event"
    },
    {
      "inputs": [
        {
          "internalType": "address",
          "name": "_newAdmin",
          "type": "address"
        }
      ],
      "name": "addAdmin",
      "outputs": [],
      "stateMutability": "nonpayable",
      "type": "function"
    },
    {
      "inputs": [
        {
          "internalType": "address",
          "name": "",
          "type": "address"
        }
      ],
      "name": "admins",
      "outputs": [
        {
          "internalType": "bool",
          "name": "",
          "type": "bool"
        }
      ],
      "stateMutability": "view",
      "type": "function"
    },
    {
      "inputs": [
        {
          "internalType": "address",
          "name": "_owner",
          "type": "address"
        },
        {
          "internalType": "address",
          "name": "_spender",
          "type": "address"
        }
      ],
      "name": "allowance",
      "outputs": [
        {
          "internalType": "uint256",
          "name": "",
          "type": "uint256"
        }
      ],
      "stateMutability": "view",
      "type": "function"
    },
    {
      "inputs": [
        {
          "internalType": "address",
          "name": "_to",
          "type": "address"
        },
        {
          "internalType": "uint256",
          "name": "_value",
          "type": "uint256"
        }
      ],
      "name": "approve",
      "outputs": [
        {
          "internalType": "bool",
          "name": "",
          "type": "bool"
        }
      ],
      "stateMutability": "nonpayable",
      "type": "function"
    },
    {
      "inputs": [
        {
          "internalType": "address",
          "name": "_owner",
          "type": "address"
        }
      ],
      "name": "balanceOf",
      "outputs": [
        {
          "internalType": "uint256",
          "name": "",
          "type": "uint256"
        }
      ],
      "stateMutability": "view",
      "type": "function"
    },
    {
      "inputs": [
        {
          "internalType": "address",
          "name": "_from",
          "type": "address"
        },
        {
          "internalType": "uint256",
          "name": "_value",
          "type": "uint256"
        }
      ],
      "name": "burn",
      "outputs": [],
      "stateMutability": "nonpayable",
      "type": "function"
    },
    {
      "inputs": [],
      "name": "decimals",
      "outputs": [
        {
          "internalType": "uint256",
          "name": "",
          "type": "uint256"
        }
      ],
      "stateMutability": "view",
      "type": "function"
    },
    {
      "inputs": [
        {
          "internalType": "address",
          "name": "_spender",
          "type": "address"
        },
        {
          "internalType": "uint256",
          "name": "_value",
          "type": "uint256"
        }
      ],
      "name": "decreaseAllowance",
      "outputs": [],
      "stateMutability": "nonpayable",
      "type": "function"
    },
    {
      "inputs": [
        {
          "internalType": "address",
          "name": "_spender",
          "type": "address"
        },
        {
          "internalType": "uint256",
          "name": "_value",
          "type": "uint256"
        }
      ],
      "name": "increaseAllowance",
      "outputs": [],
      "stateMutability": "nonpayable",
      "type": "function"
    },
    {
      "inputs": [
        {
          "internalType": "address",
          "name": "_to",
          "type": "address"
        },
        {
          "internalType": "uint256",
          "name": "_value",
          "type": "uint256"
        }
      ],
      "name": "mint",
      "outputs": [],
      "stateMutability": "nonpayable",
      "type": "function"
    },
    {
      "inputs": [],
      "name": "name",
      "outputs": [
        {
          "internalType": "string",
          "name": "",
          "type": "string"
        }
      ],
      "stateMutability": "view",
      "type": "function"
    },
    {
      "inputs": [],
      "name": "symbol",
      "outputs": [
        {
          "internalType": "string",
          "name": "",
          "type": "string"
        }
      ],
      "stateMutability": "view",
      "type": "function"
    },
    {
      "inputs": [],
      "name": "totalSuply",
      "outputs": [
        {
          "internalType": "uint256",
          "name": "",
          "type": "uint256"
        }
      ],
      "stateMutability": "view",
      "type": "function"
    },
    {
      "inputs": [
        {
          "internalType": "address",
          "name": "_to",
          "type": "address"
        },
        {
          "internalType": "uint256",
          "name": "_value",
          "type": "uint256"
        }
      ],
      "name": "transfer",
      "outputs": [
        {
          "internalType": "bool",
          "name": "",
          "type": "bool"
        }
      ],
      "stateMutability": "nonpayable",
      "type": "function"
    },
    {
      "inputs": [
        {
          "internalType": "address",
          "name": "_from",
          "type": "address"
        },
        {
          "internalType": "address",
          "name": "_to",
          "type": "address"
        },
        {
          "internalType": "uint256",
          "name": "_value",
          "type": "uint256"
        }
      ],
      "name": "transferFrom",
      "outputs": [
        {
          "internalType": "bool",
          "name": "",
          "type": "bool"
        }
      ],
      "stateMutability": "nonpayable",
      "type": "function"
    }
  ],
  "bytecode": "0x60806040523480156200001157600080fd5b506040516200208838038062002088833981810160405281019062000037919062000209565b60016000803373ffffffffffffffffffffffffffffffffffffffff1673ffffffffffffffffffffffffffffffffffffffff16815260200190815260200160002060006101000a81548160ff0219169083151502179055508260019080519060200190620000a6929190620000d0565b508160029080519060200190620000bf929190620000d0565b508060038190555050505062000425565b828054620000de9062000330565b90600052602060002090601f0160209004810192826200010257600085556200014e565b82601f106200011d57805160ff19168380011785556200014e565b828001600101855582156200014e579182015b828111156200014d57825182559160200191906001019062000130565b5b5090506200015d919062000161565b5090565b5b808211156200017c57600081600090555060010162000162565b5090565b6000620001976200019184620002ba565b62000291565b905082815260208101848484011115620001b057600080fd5b620001bd848285620002fa565b509392505050565b600082601f830112620001d757600080fd5b8151620001e984826020860162000180565b91505092915050565b60008151905062000203816200040b565b92915050565b6000806000606084860312156200021f57600080fd5b600084015167ffffffffffffffff8111156200023a57600080fd5b6200024886828701620001c5565b935050602084015167ffffffffffffffff8111156200026657600080fd5b6200027486828701620001c5565b92505060406200028786828701620001f2565b9150509250925092565b60006200029d620002b0565b9050620002ab828262000366565b919050565b6000604051905090565b600067ffffffffffffffff821115620002d857620002d7620003cb565b5b620002e382620003fa565b9050602081019050919050565b6000819050919050565b60005b838110156200031a578082015181840152602081019050620002fd565b838111156200032a576000848401525b50505050565b600060028204905060018216806200034957607f821691505b6020821081141562000360576200035f6200039c565b5b50919050565b6200037182620003fa565b810181811067ffffffffffffffff82111715620003935762000392620003cb565b5b80604052505050565b7f4e487b7100000000000000000000000000000000000000000000000000000000600052602260045260246000fd5b7f4e487b7100000000000000000000000000000000000000000000000000000000600052604160045260246000fd5b6000601f19601f8301169050919050565b6200041681620002f0565b81146200042257600080fd5b50565b611c5380620004356000396000f3fe608060405234801561001057600080fd5b50600436106100f55760003560e01c80637048027511610097578063a2a9679911610066578063a2a9679914610284578063a457c2d7146102a2578063a9059cbb146102be578063dd62ed3e146102ee576100f5565b806370480275146101fe57806370a082311461021a57806395d89b411461024a5780639dc29fac14610268576100f5565b8063313ce567116100d3578063313ce56714610178578063395093511461019657806340c10f19146101b2578063429b62e5146101ce576100f5565b806306fdde03146100fa578063095ea7b31461011857806323b872dd14610148575b600080fd5b61010261031e565b60405161010f9190611655565b60405180910390f35b610132600480360381019061012d919061146c565b6103ac565b60405161013f919061163a565b60405180910390f35b610162600480360381019061015d919061141d565b610532565b60405161016f919061163a565b60405180910390f35b610180610824565b60405161018d9190611797565b60405180910390f35b6101b060048036038101906101ab919061146c565b61082a565b005b6101cc60048036038101906101c7919061146c565b610a38565b005b6101e860048036038101906101e391906113b8565b610b9c565b6040516101f5919061163a565b60405180910390f35b610218600480360381019061021391906113b8565b610bbc565b005b610234600480360381019061022f91906113b8565b610ca1565b6040516102419190611797565b60405180910390f35b610252610cef565b60405161025f9190611655565b60405180910390f35b610282600480360381019061027d919061146c565b610d7d565b005b61028c610f99565b6040516102999190611797565b60405180910390f35b6102bc60048036038101906102b7919061146c565b610f9f565b005b6102d860048036038101906102d3919061146c565b611163565b6040516102e5919061163a565b60405180910390f35b610308600480360381019061030391906113e1565b611302565b6040516103159190611797565b60405180910390f35b6001805461032b906118d3565b80601f0160208091040260200160405190810160405280929190818152602001828054610357906118d3565b80156103a45780601f10610379576101008083540402835291602001916103a4565b820191906000526020600020905b81548152906001019060200180831161038757829003601f168201915b505050505081565b600081600560003373ffffffffffffffffffffffffffffffffffffffff1673ffffffffffffffffffffffffffffffffffffffff168152602001908152602001600020541015610430576040517f08c379a000000000000000000000000000000000000000000000000000000000815260040161042790611737565b60405180910390fd5b81600660003373ffffffffffffffffffffffffffffffffffffffff1673ffffffffffffffffffffffffffffffffffffffff16815260200190815260200160002060008573ffffffffffffffffffffffffffffffffffffffff1673ffffffffffffffffffffffffffffffffffffffff16815260200190815260200160002060008282546104bc91906117ce565b925050819055508273ffffffffffffffffffffffffffffffffffffffff163373ffffffffffffffffffffffffffffffffffffffff167f8c5be1e5ebec7d5bd14f71427d1e84f3dd0314c0f7b2291e5b200ac8c7c3b925846040516105209190611797565b60405180910390a36001905092915050565b600081600660008673ffffffffffffffffffffffffffffffffffffffff1673ffffffffffffffffffffffffffffffffffffffff16815260200190815260200160002060008573ffffffffffffffffffffffffffffffffffffffff1673ffffffffffffffffffffffffffffffffffffffff1681526020019081526020016000205410156105f3576040517f08c379a00000000000000000000000000000000000000000000000000000000081526004016105ea90611677565b60405180910390fd5b81600560008673ffffffffffffffffffffffffffffffffffffffff1673ffffffffffffffffffffffffffffffffffffffff168152602001908152602001600020541015610675576040517f08c379a000000000000000000000000000000000000000000000000000000000815260040161066c90611717565b60405180910390fd5b81600660008673ffffffffffffffffffffffffffffffffffffffff1673ffffffffffffffffffffffffffffffffffffffff16815260200190815260200160002060008573ffffffffffffffffffffffffffffffffffffffff1673ffffffffffffffffffffffffffffffffffffffff16815260200190815260200160002060008282546107019190611824565b9250508190555081600560008673ffffffffffffffffffffffffffffffffffffffff1673ffffffffffffffffffffffffffffffffffffffff16815260200190815260200160002060008282546107579190611824565b9250508190555081600560008573ffffffffffffffffffffffffffffffffffffffff1673ffffffffffffffffffffffffffffffffffffffff16815260200190815260200160002060008282546107ad91906117ce565b925050819055508273ffffffffffffffffffffffffffffffffffffffff168473ffffffffffffffffffffffffffffffffffffffff167fddf252ad1be2c89b69c2b068fc378daa952ba7f163c4a11628f55a4df523b3ef846040516108119190611797565b60405180910390a3600190509392505050565b60035481565b600660003373ffffffffffffffffffffffffffffffffffffffff1673ffffffffffffffffffffffffffffffffffffffff16815260200190815260200160002060008373ffffffffffffffffffffffffffffffffffffffff1673ffffffffffffffffffffffffffffffffffffffff16815260200190815260200160002054816108b291906117ce565b600560003373ffffffffffffffffffffffffffffffffffffffff1673ffffffffffffffffffffffffffffffffffffffff168152602001908152602001600020541015610933576040517f08c379a000000000000000000000000000000000000000000000000000000000815260040161092a90611697565b60405180910390fd5b80600660003373ffffffffffffffffffffffffffffffffffffffff1673ffffffffffffffffffffffffffffffffffffffff16815260200190815260200160002060008473ffffffffffffffffffffffffffffffffffffffff1673ffffffffffffffffffffffffffffffffffffffff16815260200190815260200160002060008282546109bf91906117ce565b925050819055508173ffffffffffffffffffffffffffffffffffffffff163373ffffffffffffffffffffffffffffffffffffffff167f8c5be1e5ebec7d5bd14f71427d1e84f3dd0314c0f7b2291e5b200ac8c7c3b925610a1f3386611302565b604051610a2c9190611797565b60405180910390a35050565b6000803373ffffffffffffffffffffffffffffffffffffffff1673ffffffffffffffffffffffffffffffffffffffff16815260200190815260200160002060009054906101000a900460ff16610ac3576040517f08c379a0000000000000000000000000000000000000000000000000000000008152600401610aba906116f7565b60405180910390fd5b8060046000828254610ad591906117ce565b9250508190555080600560008473ffffffffffffffffffffffffffffffffffffffff1673ffffffffffffffffffffffffffffffffffffffff1681526020019081526020016000206000828254610b2b91906117ce565b925050819055508173ffffffffffffffffffffffffffffffffffffffff16600073ffffffffffffffffffffffffffffffffffffffff167fddf252ad1be2c89b69c2b068fc378daa952ba7f163c4a11628f55a4df523b3ef83604051610b909190611797565b60405180910390a35050565b60006020528060005260406000206000915054906101000a900460ff1681565b6000803373ffffffffffffffffffffffffffffffffffffffff1673ffffffffffffffffffffffffffffffffffffffff16815260200190815260200160002060009054906101000a900460ff16610c47576040517f08c379a0000000000000000000000000000000000000000000000000000000008152600401610c3e906116f7565b60405180910390fd5b60016000808373ffffffffffffffffffffffffffffffffffffffff1673ffffffffffffffffffffffffffffffffffffffff16815260200190815260200160002060006101000a81548160ff02191690831515021790555050565b600080600560008473ffffffffffffffffffffffffffffffffffffffff1673ffffffffffffffffffffffffffffffffffffffff16815260200190815260200160002054905080915050919050565b60028054610cfc906118d3565b80601f0160208091040260200160405190810160405280929190818152602001828054610d28906118d3565b8015610d755780601f10610d4a57610100808354040283529160200191610d75565b820191906000526020600020905b815481529060010190602001808311610d5857829003601f168201915b505050505081565b8173ffffffffffffffffffffffffffffffffffffffff163373ffffffffffffffffffffffffffffffffffffffff161480610dff57506000803373ffffffffffffffffffffffffffffffffffffffff1673ffffffffffffffffffffffffffffffffffffffff16815260200190815260200160002060009054906101000a900460ff165b610e3e576040517f08c379a0000000000000000000000000000000000000000000000000000000008152600401610e3590611757565b60405180910390fd5b80600560008473ffffffffffffffffffffffffffffffffffffffff1673ffffffffffffffffffffffffffffffffffffffff168152602001908152602001600020541015610ec0576040517f08c379a0000000000000000000000000000000000000000000000000000000008152600401610eb790611777565b60405180910390fd5b8060046000828254610ed29190611824565b9250508190555080600560008473ffffffffffffffffffffffffffffffffffffffff1673ffffffffffffffffffffffffffffffffffffffff1681526020019081526020016000206000828254610f289190611824565b92505081905550600073ffffffffffffffffffffffffffffffffffffffff168273ffffffffffffffffffffffffffffffffffffffff167fddf252ad1be2c89b69c2b068fc378daa952ba7f163c4a11628f55a4df523b3ef83604051610f8d9190611797565b60405180910390a35050565b60045481565b80600660003373ffffffffffffffffffffffffffffffffffffffff1673ffffffffffffffffffffffffffffffffffffffff16815260200190815260200160002060008473ffffffffffffffffffffffffffffffffffffffff1673ffffffffffffffffffffffffffffffffffffffff16815260200190815260200160002054101561105e576040517f08c379a0000000000000000000000000000000000000000000000000000000008152600401611055906116d7565b60405180910390fd5b80600660003373ffffffffffffffffffffffffffffffffffffffff1673ffffffffffffffffffffffffffffffffffffffff16815260200190815260200160002060008473ffffffffffffffffffffffffffffffffffffffff1673ffffffffffffffffffffffffffffffffffffffff16815260200190815260200160002060008282546110ea9190611824565b925050819055508173ffffffffffffffffffffffffffffffffffffffff163373ffffffffffffffffffffffffffffffffffffffff167f8c5be1e5ebec7d5bd14f71427d1e84f3dd0314c0f7b2291e5b200ac8c7c3b92561114a3386611302565b6040516111579190611797565b60405180910390a35050565b600081600560003373ffffffffffffffffffffffffffffffffffffffff1673ffffffffffffffffffffffffffffffffffffffff1681526020019081526020016000205410156111e7576040517f08c379a00000000000000000000000000000000000000000000000000000000081526004016111de906116b7565b60405180910390fd5b81600560003373ffffffffffffffffffffffffffffffffffffffff1673ffffffffffffffffffffffffffffffffffffffff16815260200190815260200160002060008282546112369190611824565b9250508190555081600560008573ffffffffffffffffffffffffffffffffffffffff1673ffffffffffffffffffffffffffffffffffffffff168152602001908152602001600020600082825461128c91906117ce565b925050819055508273ffffffffffffffffffffffffffffffffffffffff163373ffffffffffffffffffffffffffffffffffffffff167fddf252ad1be2c89b69c2b068fc378daa952ba7f163c4a11628f55a4df523b3ef846040516112f09190611797565b60405180910390a36001905092915050565b600080600660008573ffffffffffffffffffffffffffffffffffffffff1673ffffffffffffffffffffffffffffffffffffffff16815260200190815260200160002060008473ffffffffffffffffffffffffffffffffffffffff1673ffffffffffffffffffffffffffffffffffffffff1681526020019081526020016000205490508091505092915050565b60008135905061139d81611bef565b92915050565b6000813590506113b281611c06565b92915050565b6000602082840312156113ca57600080fd5b60006113d88482850161138e565b91505092915050565b600080604083850312156113f457600080fd5b60006114028582860161138e565b92505060206114138582860161138e565b9150509250929050565b60008060006060848603121561143257600080fd5b60006114408682870161138e565b93505060206114518682870161138e565b9250506040611462868287016113a3565b9150509250925092565b6000806040838503121561147f57600080fd5b600061148d8582860161138e565b925050602061149e858286016113a3565b9150509250929050565b6114b18161186a565b82525050565b60006114c2826117b2565b6114cc81856117bd565b93506114dc8185602086016118a0565b6114e581611963565b840191505092915050565b60006114fd603a836117bd565b915061150882611974565b604082019050919050565b6000611520601b836117bd565b915061152b826119c3565b602082019050919050565b6000611543602f836117bd565b915061154e826119ec565b604082019050919050565b6000611566601c836117bd565b915061157182611a3b565b602082019050919050565b60006115896025836117bd565b915061159482611a64565b604082019050919050565b60006115ac6038836117bd565b91506115b782611ab3565b604082019050919050565b60006115cf602e836117bd565b91506115da82611b02565b604082019050919050565b60006115f26027836117bd565b91506115fd82611b51565b604082019050919050565b60006116156030836117bd565b915061162082611ba0565b604082019050919050565b61163481611896565b82525050565b600060208201905061164f60008301846114a8565b92915050565b6000602082019050818103600083015261166f81846114b7565b905092915050565b60006020820190508181036000830152611690816114f0565b9050919050565b600060208201905081810360008301526116b081611513565b9050919050565b600060208201905081810360008301526116d081611536565b9050919050565b600060208201905081810360008301526116f081611559565b9050919050565b600060208201905081810360008301526117108161157c565b9050919050565b600060208201905081810360008301526117308161159f565b9050919050565b60006020820190508181036000830152611750816115c2565b9050919050565b60006020820190508181036000830152611770816115e5565b9050919050565b6000602082019050818103600083015261179081611608565b9050919050565b60006020820190506117ac600083018461162b565b92915050565b600081519050919050565b600082825260208201905092915050565b60006117d982611896565b91506117e483611896565b9250827fffffffffffffffffffffffffffffffffffffffffffffffffffffffffffffffff0382111561181957611818611905565b5b828201905092915050565b600061182f82611896565b915061183a83611896565b92508282101561184d5761184c611905565b5b828203905092915050565b600061186382611876565b9050919050565b60008115159050919050565b600073ffffffffffffffffffffffffffffffffffffffff82169050919050565b6000819050919050565b60005b838110156118be5780820151818401526020810190506118a3565b838111156118cd576000848401525b50505050565b600060028204905060018216806118eb57607f821691505b602082108114156118ff576118fe611934565b5b50919050565b7f4e487b7100000000000000000000000000000000000000000000000000000000600052601160045260246000fd5b7f4e487b7100000000000000000000000000000000000000000000000000000000600052602260045260246000fd5b6000601f19601f8301169050919050565b7f596f752068617665206e6f7420616c6c6f77616e63657320746f20776974686460008201527f726177207468697320616d6f756e74206f6620746f6b656e7321000000000000602082015250565b7f4e6f7420656e6f75676820746f6b656e7320746f20616c6c6f77210000000000600082015250565b7f596f752068617665206e6f7420656e6f756768204d79455243323020746f6b6560008201527f6e7320746f207472616e73666572210000000000000000000000000000000000602082015250565b7f416c6c6f77616e6365206973206c657373207468616e207a65726f2100000000600082015250565b7f4f6e6c792041646d696e206861732061636365737320746f2074686973206d6560008201527f74686f6421000000000000000000000000000000000000000000000000000000602082015250565b7f4164647265737320796f752077616e7420746f2077697468647261772066726f60008201527f6d20686173206e6f7420656e6f75676820746f6b656e73210000000000000000602082015250565b7f596f752068617665206e6f7420656e6f756768204d79455243323020746f6b6560008201527f6e7320746f20617070726f766521000000000000000000000000000000000000602082015250565b7f596f752063616e74206275726e20746f6b656e732066726f6d2074686973206160008201527f6464726573732100000000000000000000000000000000000000000000000000602082015250565b7f596f7520686176656e2774207375636820612062696720616d6f756e74206f6660008201527f20746f6b656e7320746f206275726e2100000000000000000000000000000000602082015250565b611bf881611858565b8114611c0357600080fd5b50565b611c0f81611896565b8114611c1a57600080fd5b5056fea26469706673582212201dadd8fdc54ffdbfead32ede975e6fb1516313beb2eb226d4967fad9210199bc64736f6c63430008040033",
  "linkReferences": {},
  "deployedLinkReferences": {}
}